:020000040800F2
:1000000000800020A917000801140008031400084C
:100010000514000807140008091400080000000077
:100020000000000000000000000000000B140008A9
:100030000D140008000000000F140008111400083F
:10004000F9170008F9170008F9170008F917000850
:10005000F9170008F9170008F9170008F917000840
:10006000F9170008F9170008F9170008F917000830
:10007000F9170008F9170008F9170008F917000820
:10008000F917000800000000F9170008F917000828
:10009000F9170008F9170008F917000815140008E7
:1000A000F9170008F9170008F9170008F9170008F0
:1000B000F9170008F9170008F9170008F9170008E0
:1000C000F9170008F9170008F9170008F9170008D0
:1000D000F91700081D140008F9170008F91700089F
:1000E000F9170008F9170008F9170008F9170008B0
:1000F000F9170008F9170008F917000800000000B8
:1001000000000000F917000800000000F9170008BF
:10011000F91700080000000035140008F91700085E
:10012000F9170008F9170008F9170008F91700086F
:10013000F91700080000000000000000F91700088F
:10014000F9170008F917000800000000000000007F
:10015000000000000000000000000000000000009F
:10016000000000000000000000000000F917000877
:10017000F917000800000000000000000000000067
:1001800000000000F9170008000000000000000057
:10019000000000000000000000000000000000005F
:1001A0000000000000000000F9170008F91700081F
:1001B000F9170008F9170008F917000800000000F7
:1001C00000000000F9170008000000000000000017
:0801D000F9170008F9170008F7
:1001E00010B5054C237833B9044B13B10448AFF371
:1001F00000800123237010BDD40100200000000006
:100200007C82000808B5034B1BB103490348AFF3D8
:10021000008008BD00000000D80100207C8200089A
:1002200001F0FF01102A2BDB10F0070F08D010F8A7
:10023000013B013A8B422DD010F0070F42B3F6D1AB
:10024000F0B441EA012141EA014122F007047FF0C4
:1002500000070023F0E80256083C85EA010586EA1B
:10026000010685FA47F5A3FA87F586FA47F6A5FA57
:1002700087F68EB9EED1F0BC01F0FF0102F0070263
:1002800032B110F8013B013A83EA010313B1F8D10E
:100290000020704701387047002D06BF35460338EF
:1002A000073815F0010F07D1013015F4807F02BF28
:1002B000013015F4C03F0130F0BC0138704700BF79
:1002C000034613F8012B002AFBD1181A0138704796
:1002D00081F0004102E000BF83F0004330B54FEAF7
:1002E00041044FEA430594EA050F08BF90EA020F64
:1002F0001FBF54EA000C55EA020C7FEA645C7FEAF7
:10030000655C00F0E2804FEA5454D4EB5555B8BF19
:100310006D420CDD2C4480EA020281EA030382EA8A
:10032000000083EA010180EA020281EA0303362D1C
:1003300088BF30BD11F0004F4FEA01314FF4801CEF
:100340004CEA113102D0404261EB410113F0004F01
:100350004FEA03334CEA133302D0524263EB4303B8
:1003600094EA050F00F0A780A4F10104D5F1200E56
:100370000DDB02FA0EFC22FA05F2801841F10001B1
:1003800003FA0EF2801843FA05F359410EE0A5F185
:1003900020050EF1200E012A03FA0EFC28BF4CF0B6
:1003A000020C43FA05F3C01851EBE37101F000456C
:1003B00007D54FF0000EDCF1000C7EEB00006EEB79
:1003C0000101B1F5801F1BD3B1F5001F0CD3490803
:1003D0005FEA30004FEA3C0C04F101044FEA44525A
:1003E00012F5800F80F09A80BCF1004F08BF5FEAE1
:1003F000500C50F1000041EB045141EA050130BDC1
:100400005FEA4C0C404141EB0101013C28BFB1F5D2
:10041000801FE9D291F0000F04BF01460020B1FA1D
:1004200081F308BF2033A3F10B03B3F120020CDAF0
:100430000C3208DD02F1140CC2F10C0201FA0CF0CE
:1004400021FA02F10CE002F11402D8BFC2F1200C33
:1004500001FA02F120FA0CFCDCBF41EA0C019040E9
:10046000E41AA2BF01EB0451294330BD6FEA040432
:100470001F3C1CDA0C340EDC04F11404C4F120021D
:1004800020FA04F001FA02F340EA030021FA04F32F
:1004900045EA030130BDC4F10C04C4F1200220FA86
:1004A00002F001FA04F340EA0300294630BD21FAC4
:1004B00004F0294630BD94F0000F83F4801306BF8A
:1004C00081F480110134013D4EE77FEA645C18BF7E
:1004D0007FEA655C29D094EA050F08BF90EA020F15
:1004E00005D054EA000C04BF1946104630BD91EA0D
:1004F000030F1EBF0021002030BD5FEA545C05D110
:100500004000494128BF41F0004130BD14F580044E
:100510003CBF01F5801130BD01F0004545F0FE41C2
:1005200041F470014FF0000030BD7FEA645C1ABFF7
:10053000194610467FEA655C1CBF0B46024650EA2E
:10054000013406BF52EA033591EA030F41F400215A
:1005500030BD00BF90F0000F04BF0021704730B5E0
:100560004FF4806404F132044FF000054FF00001B5
:1005700050E700BF90F0000F04BF0021704730B576
:100580004FF4806404F1320410F0004548BF40424B
:100590004FF000013EE700BF42004FEAE2014FEAA0
:1005A00031014FEA02701FBF12F07F4393F07F4F7B
:1005B00081F06051704732F07F4208BF704793F07E
:1005C0007F4F04BF41F40021704730B54FF4607491
:1005D00001F0004521F000411CE700BF50EA010294
:1005E00008BF704730B54FF000050AE050EA01023D
:1005F00008BF704730B511F0004502D5404261EBAD
:1006000041014FF4806404F132045FEA915C3FF4ED
:10061000D8AE4FF003025FEADC0C18BF03325FEA8A
:10062000DC0C18BF033202EBDC02C2F1200300FA3B
:1006300003FC20FA02F001FA03FE40EA0E0021FA60
:1006400002F11444BDE600BF70B54FF0FF0C4CF44E
:10065000E06C1CEA11541DBF1CEA135594EA0C0F00
:1006600095EA0C0F00F0DEF82C4481EA030621EA3B
:100670004C5123EA4C5350EA013518BF52EA033576
:1006800041F4801143F4801338D0A0FB02CE4FF028
:100690000005E1FB02E506F00042E0FB03E54FF058
:1006A0000006E1FB03569CF0000F18BF4EF0010E50
:1006B000A4F1FF04B6F5007F64F5407404D25FEA4C
:1006C0004E0E6D4146EB060642EAC62141EA5551FF
:1006D0004FEAC52040EA5E504FEACE2EB4F1FD0C41
:1006E00088BFBCF5E06F1ED8BEF1004F08BF5FEABF
:1006F000500E50F1000041EB045170BD06F0004671
:1007000046EA010140EA020081EA0301B4EB5C041D
:10071000C2BFD4EB0C0541EA045170BD41F4801115
:100720004FF0000E013C00F3AB8014F1360FDEBF3A
:10073000002001F0004170BDC4F10004203C35DA16
:100740000C341BDC04F11404C4F1200500FA05F399
:1007500020FA04F001FA05F240EA020001F000423A
:1007600021F0004110EBD37021FA04F642EB0601B0
:100770005EEA430E08BF20EAD37070BDC4F10C04DA
:10078000C4F1200500FA04F320FA05F001FA04F29E
:1007900040EA020001F0004110EBD37041F100018A
:1007A0005EEA430E08BF20EAD37070BDC4F1200595
:1007B00000FA05F24EEA020E20FA04F301FA05F2FD
:1007C00043EA020321FA04F001F0004121FA04F2A5
:1007D00020EA020000EBD3705EEA430E08BF20EA75
:1007E000D37070BD94F0000F0FD101F000464000AF
:1007F00041EB010111F4801F08BF013CF7D041EA31
:10080000060195F0000F18BF704703F00046520034
:1008100043EB030313F4801F08BF013DF7D043EA05
:100820000603704794EA0C0F0CEA135518BF95EABB
:100830000C0F0CD050EA410618BF52EA4306D1D142
:1008400081EA030101F000414FF0000070BD50EA61
:10085000410606BF1046194652EA430619D094EAEB
:100860000C0F02D150EA013613D195EA0C0F05D1D5
:1008700052EA03361CBF104619460AD181EA030129
:1008800001F0004141F0FE4141F470014FF00000E1
:1008900070BD41F0FE4141F4780170BD70B54FF07C
:1008A000FF0C4CF4E06C1CEA11541DBF1CEA1355FC
:1008B00094EA0C0F95EA0C0F00F0A7F8A4EB0504DE
:1008C00081EA030E52EA03354FEA013100F08880D5
:1008D0004FEA03334FF0805545EA131343EA12639E
:1008E0004FEA022245EA111545EA10654FEA002653
:1008F0000EF000419D4208BF964244F1FD0404F50C
:10090000407402D25B084FEA3202B61A65EB030567
:100910005B084FEA32024FF480104FF4002CB6EB24
:10092000020E75EB030E22BFB61A754640EA0C00A4
:100930005B084FEA3202B6EB020E75EB030E22BFE4
:10094000B61A754640EA5C005B084FEA3202B6EB25
:10095000020E75EB030E22BFB61A754640EA9C00E4
:100960005B084FEA3202B6EB020E75EB030E22BFB4
:10097000B61A754640EADC0055EA060E18D04FEA72
:10098000051545EA16754FEA06164FEAC30343EA12
:1009900052734FEAC2025FEA1C1CC0D111F4801FDF
:1009A0000BD141EA00014FF000004FF0004CB6E7D8
:1009B00011F4801F04BF01430020B4F1FD0C88BF77
:1009C000BCF5E06F3FF6AFAEB5EB030C04BFB6EB82
:1009D000020C5FEA500C50F1000041EB045170BD75
:1009E0000EF0004E4EEA113114EB5C04C2BFD4EBA2
:1009F0000C0541EA045170BD41F480114FF0000E26
:100A0000013C90E645EA060E8DE60CEA135594EAA1
:100A10000C0F08BF95EA0C0F3FF43BAF94EA0C0FA4
:100A20000AD150EA01347FF434AF95EA0C0F7FF419
:100A300025AF104619462CE795EA0C0F06D152EA6D
:100A400003353FF4FDAE1046194622E750EA410651
:100A500018BF52EA43067FF4C5AE50EA41047FF462
:100A60000DAF52EA43057FF4EBAE12E74FF0FF3CC7
:100A700006E000BF4FF0010C02E000BF4FF0010C98
:100A80004DF804CD4FEA410C7FEA6C5C4FEA430C11
:100A900018BF7FEA6C5C1BD001B050EA410C0CBF60
:100AA00052EA430C91EA030F02BF90EA020F0020C2
:100AB000704710F1000F91EA030F58BF994208BF29
:100AC00090422CBFD8176FEAE37040F001007047E6
:100AD0004FEA410C7FEA6C5C02D150EA013C07D13D
:100AE0004FEA430C7FEA6C5CD6D152EA033CD3D088
:100AF0005DF8040B704700BF8446104662468C4682
:100B00001946634600E000BF01B5FFF7B7FF0028B4
:100B100048BF10F1000F01BD4DF808EDFFF7F4FFDD
:100B20000CBF012000205DF808FB00BF4DF808ED68
:100B3000FFF7EAFF34BF012000205DF808FB00BF8B
:100B40004DF808EDFFF7E0FF94BF012000205DF8AD
:100B500008FB00BF4DF808EDFFF7CEFF94BF012062
:100B600000205DF808FB00BF4DF808EDFFF7C4FF5B
:100B700034BF012000205DF808FB00BF4FEA410CA4
:100B80007FEA6C5C02D150EA013C0AD14FEA430C87
:100B90007FEA6C5C02D152EA033C02D14FF00000C4
:100BA00070474FF0010070474FEA410212F5001202
:100BB00015D211D56FF47873B3EB625212D94FEAA4
:100BC000C12343F0004343EA505311F0004F23FA8E
:100BD00002F018BF404270474FF00000704750EAE3
:100BE000013005D111F0004008BF6FF000407047A0
:100BF0004FF00000704700BF4A0011D212F50012FA
:100C000011D20DD56FF47873B3EB62520ED44FEA64
:100C1000C12343F0004343EA505323FA02F07047E4
:100C20004FF00000704750EA013002D14FF0FF3022
:100C300070474FF0000070474FEA4102B2F1E043C5
:100C400024BFB3F5001CDCF1FE5C0DD901F0004CB3
:100C50004FEAC0024CEA5070B2F1004F40EB830003
:100C600008BF20F00100704711F0804F21D113F12F
:100C70003872BCBF01F00040704741F480114FEA68
:100C80005252C2F11802C2F1200C10FA0CF320FAF1
:100C900002F018BF40F001004FEAC1234FEAD3230E
:100CA00003FA0CFC40EA0C0023FA02F34FEA430378
:100CB000CCE77FEA625307D150EA01331EBF4FF001
:100CC000FE4040F44000704701F0004040F0FE401C
:100CD00040F40000704700BF53B94AB9002908BF6B
:100CE00000281CBF4FF0FF314FF0FF3000F0BEB9BD
:100CF000ADF1080C6DE904CE00F03CF8DDF804E03D
:100D0000DDE9022304B0704738B500220023044611
:100D10000D46FFF70BFF28B920462946BDE83840AD
:100D200000F00AB8204605F1004100F005F8404205
:100D300061EB410138BD00BFD0B50C4B0022064627
:100D40000F46FFF781FCFFF757FF0446FFF702FC51
:100D5000074B0022FFF778FC02460B463046394627
:100D6000FFF7BAFAFFF748FF2146D0BD0000F03D7B
:100D70000000F0412DE9F047089D8E460446884664
:100D8000002B4AD18A42174662D9B2FA82F64EB196
:100D9000C6F1200301FA06F820FA03F3B74043EA4C
:100DA0000808B4404FEA174E1FFA87FCB8FBFEF163
:100DB000230C0EFB118843EA084301FB0CF29A4214
:100DC00009D9FB1801F1FF3080F0EA809A4240F225
:100DD000E78002393B449A1AA3B2B2FBFEF00EFB45
:100DE000102243EA024300FB0CFC9C4509D9FB1886
:100DF00000F1FF3280F0D6809C4540F2D3803B4426
:100E0000023840EA0140A3EB0C0300211DB1F3407E
:100E10000022C5E90032BDE8F0878B4205D90DB14B
:100E2000C5E9000100210846F5E7B3FA83F100297E
:100E300046D1734502D3824200F20581841A6EEBDB
:100E4000030201209046002DE5D0C5E90048E2E705
:100E5000002A00F09080B2FA82F6002E40F0A480C2
:100E60008A1A030C4FEA174E80B2BCB20121B2FBC2
:100E7000FEFC0EFB1C2243EA024304FB0CF29A42E6
:100E800007D9FB180CF1FF3802D29A4200F2E08039
:100E9000C4469B1AB3FBFEF20EFB123340EA034337
:100EA00002FB04F49C4207D9FB1802F1FF3002D286
:100EB0009C4200F2CA8002461B1B42EA0C40A5E796
:100EC000C1F120068B4022FA06F71F430EFA01F407
:100ED00020FA06F32EFA06FE4FEA1749234300FADA
:100EE00001F81FFA87FCBEFBF9F01C0C09FB10EEA1
:100EF00044EA0E4400FB0CFEA64502FA01F209D9B1
:100F00003C1900F1FF3A80F09C80A64540F29980A0
:100F100002383C44A4EB0E041FFA83FEB4FBF9F341
:100F200009FB13444EEA044403FB0CFCA44508D916
:100F30003C1903F1FF3E80F08280A4457FD9023B3B
:100F40003C4443EA0040A4EB0C04A0FB02EC6445E3
:100F50007346E14662D35FD05DB1B8EB030264EB48
:100F6000090404FA06F622FA01F31E43CC40C5E94F
:100F7000006400214FE7B1FBF2FC010C41EA0E4195
:100F800080B240EA01423B4638463C46B846BE463F
:100F90002026B1FBF7F1A2EB080241EA0C4166E71B
:100FA000014618E710462CE7C6F120022EFA02F39C
:100FB000B740B14020FA02F24FEA174E0A43B3FBA2
:100FC000FEF8BCB20EFB1833110C41EA034108FBDA
:100FD00004F9B04089454FEA104380B23ED97918F0
:100FE00008F1FF3C01D289451FD8A1EB0901B1FBF3
:100FF000FEF909FB04F80EFB191192B242EA014214
:10100000424529D2BA1809F1FF31C4D24245C2D2B1
:10101000A9F102013A44BEE7F0459DD2BEEB0203BE
:101020006CEB070C0138E14696E7A7EB0909494448
:10103000A8F1020CB1FBFEF909FB04F8DBE77346EB
:101040007FE7504666E70846FDE63B44023A33E751
:10105000ACF1020C3B441CE749469CE7A1EB0901BB
:10106000C446B1FBFEF909FB04F8C4E7704700BFB2
:10107000F0B514228BB00DEB0200002103F025FD2A
:10108000324B334FDA6C334D42F02002DA64DA6CC3
:1010900002F020020192019ADA6C42F00102DA6455
:1010A000DA6C02F001020292029ADA6C42F0040257
:1010B000DA64DA6C02F004020392039ADA6C42F00A
:1010C0000202DA64DB6C03F0020304933846002268
:1010D000C021049B00F092FD284600224FF40071CD
:1010E00000F08CFD002420224FF4441305A94FF09A
:1010F0009040CDE90523079400F0B0FC802305A9BA
:101100004FF09040CDE905340126079400F0A6FC8D
:10111000C02305A93846CDE90536CDE9074400F0DE
:101120009DFC4FF4007305A92846CDE90536CDE9AD
:10113000074400F093FC22460321172000F0CCFB6B
:10114000172000F0FBFB0BB0F0BD00BF0010024009
:101150000008004800040048202810B504460DD1BE
:10116000322000F093FB21464FF0904000F040FD0C
:10117000034B012816BF002218701A7010BD00BF63
:10118000F0010020012810B5044612D0022C1D48A1
:101190004FF001024FF080011AD044BB00F02EFD49
:1011A000012219484FF4007100F028FD2246402129
:1011B0000CE002464FF40071134800F01FFD224678
:1011C0004021104800F01AFD002280210D480AE05D
:1011D00000F014FD0B480122402100F00FFD0A48E9
:1011E00000224FF40071BDE8104000F007BD00F090
:1011F00005FD012204484FF4007100F0FFFC0122BC
:10120000D5E700BF000800480004004808B52021C9
:101210004FF0904000F0ECFC014B187008BD00BF8F
:10122000F0010020034B187808B9FFF7ABBF02208C
:10123000FBE700BFF001002010B594B03822002178
:1012400006A803F042FC1422002101A803F03DFC93
:10125000002000F0E5FC01224FF48033CDE90623A5
:1012600003240223552206A8CDE90D34CDE910232D
:10127000CDE912330F9400F033FD08B172B6FEE7EA
:101280000421CDE903000F2305900DEB0100CDE90A
:10129000013400F067FF08B172B6FEE714B010BD6C
:1012A00008B500F0D1FAFFF7C7FFFFF7E1FE00F045
:1012B0009BF900F027F9FFF7A9FF054C0025FFF780
:1012C000B1FF2378002BFAD000F03EFA2570F6E744
:1012D0005004002072B6FEE770B50378AA2B0446CE
:1012E0000D4601D0002070BD0139465C00F050FA77
:1012F0008642F7D10D4B01221A700D4B83F8045131
:1013000022781A7062785A70A27814F8031F9A70C3
:1013100003F8041F0022D0B2814201D80120E2E785
:1013200014F8010F03F8010F0132F4E7F101002076
:10133000F201002070B5114B114C1A7822705A78C6
:101340001D7962709A78A270DA78E270257135B9E9
:10135000291D0B4800F01CFA2544687170BD094A2C
:1013600004331679211D0022D0B28642F0D913F839
:10137000010F01F8010F0132F6E700BFF80200206B
:10138000EA040020F201002008B5FFF7A5FF0B4B8F
:1013900080B155221A700A4A517892789A700022C8
:1013A000DA701A710622597083F80421BDE80840EA
:1013B000FFF7C0BF83F8040108BD00BFF80200209A
:1013C000F20100200D4B07B51A6E42F001021A66B9
:1013D0001A6E02F001020092009A9A6D42F0805259
:1013E0009A659B6D03F0805301930520019B00F0EB
:1013F00061FA03B05DF804EB00F06ABC0010024033
:10140000FEE7FEE7FEE7FEE7FEE77047704770473E
:1014100000F02ABA202000F0F7BB000010B5044C01
:10142000204601F021FC2268536ADBB2536210BDF2
:1014300054040020014801F03BB900BF040400201F
:101440000120704708B503F093FB162303604FF0AB
:10145000FF3008BD08B503F08BFB16230360FEE7E1
:1014600070B50D4614460E46731B9C4201DC2046A7
:1014700070BDAFF3008006F8010BF5E770B50D46BF
:1014800014460E46731B9C4201DC204670BD16F8C4
:10149000010B00F099F8F5E74FF0FF3070474FF47B
:1014A00000534B60002070470120704700207047B8
:1014B0000B4A116810B5034609B90A491160106852
:1014C00009490A4C0344091B8B4206D903F050FB1F
:1014D0000C2303604FF0FF3010BD1360FCE700BF2A
:1014E00000040020400800200080002000040000CC
:1014F000034AD2F8883043F47003C2F8883070474A
:1015000000ED00E030B5134A134C85B0A923002547
:10151000C4E90023204641F28733CDE90155039504
:10152000A560E360A56101F0E7F908B1FFF7D2FE1D
:101530000948019501A9039501F00EFA08B1FFF7DA
:10154000C9FE236804486FF001021A6101F094F8A3
:1015500005B030BD001000400404002007B50E4B5C
:1015600002689A4215D103F5003302219A6D42F0C8
:1015700010029A659B6D03F0100301930022362040
:10158000019B00F0A9F9362003B05DF804EB00F0F0
:10159000D5B903B05DF804FB001000400268074BAA
:1015A0009A4209D1064B074801221A7003686FF06E
:1015B00001021A6101F060B8704700BF00100040DE
:1015C000500400200404002007B54FF0FF330190C1
:1015D000012201A9034802F0E1F8019803B05DF887
:1015E00004FB00BF540400201848194A08B54FF402
:1015F000E133C0E9002300230C22C0E90233C0E933
:101600000523C0E90733C0E90933036102F076F925
:1016100008B1FFF75FFE0D48002102F08BFA08B118
:10162000FFF758FE0948002102F0A4FA08B1FFF7BD
:1016300051FE064802F063FA08B1FFF74BFEBDE821
:10164000084004490148012202F012BA5404002063
:1016500000380140E806002010B598B00446142276
:10166000002102A803F031FA4422002107A803F068
:101670002CFA22681A4B9A422FD1012307A807930C
:1016800000F088FE08B1FFF725FE164B16481A6ECB
:1016900042F480421A661A6E02F480420092009A66
:1016A000DA6C42F00402DA64DB6C03F004030193A9
:1016B0003022019B0223CDE902230024072302A943
:1016C0000693CDE9044400F0C9F925202246012102
:1016D00000F002F9252000F031F918B010BD00BF6C
:1016E0000038014000100240000800480268104B1A
:1016F0009A4270B51BD10F4C0F4E23880F4831789A
:101700009BB25A1C92B222800D4AD1540368002524
:101710005D6200F07BFF23889BB2FE2B06D831462A
:101720000848BDE87040012202F0A2B9258070BDD2
:1017300000380140E8040020E806002004040020EE
:10174000E90500205404002038B50B4D0B482988CA
:101750000B4CC9B2FFF718FE0A4B0B4993F8042152
:10176000204601F01FFA00232B8020460749BDE8E0
:101770003840012202F07CB9E8040020E90500208D
:1017800054040020F8020020EA040020E8060020AB
:101790000346014400208B4200D1704713F8012B0F
:1017A0001044C0B2F7E700000D488546FFF7A0FEE1
:1017B0000C480D490D4A002302E0D458C4500433AC
:1017C000C4188C42F9D30A4A0A4C002301E0136082
:1017D0000432A242FBD303F0D1F9FFF761FDFEE72B
:1017E0000080002000000020D401002014870008A1
:1017F000D40100203C080020FEE7000038B50F4B64
:101800001A6805460AB9012038BD4FF47A73B3FB54
:10181000F2F30B4A1068B0FBF3F000F09DF80446B9
:101820000028F0D10F2DEED8024629464FF0FF30A8
:1018300000F052F8034B20461D60E5E7040000204D
:10184000000000200800002010B5032000F032F84E
:101850000020FFF7D3FF044618B9FFF7B3FD204679
:1018600010BD0124FBE70000034A0449136809681E
:101870000B441360704700BFEC06002004000020FA
:10188000014B1868704700BFEC06002038B50446CD
:10189000FFF7F6FF631C1CBF054B1B68054618BF0E
:1018A000E418FFF7EDFF431BA342FAD338BD00BF96
:1018B000040000200749CA6822F4E062030212040F
:1018C00003F4E063120C134343F0BF6343F40033AB
:1018D000CB60704700ED00E0164B30B5DC68C4F318
:1018E0000224C4F10703251D042B28BF0423062D61
:1018F0004FF0FF358CBF033C002405FA03F321EAC7
:101900000303A54022EA0502A340002843EA02039C
:10191000ACBF00F16040084A4FEA0313B8BF00F0C3
:101920000F00DBB2AABF00F56140135480F800330A
:1019300030BD00BF00ED00E014ED00E0002807DB43
:10194000044A4109012300F01F00834042F821307E
:10195000704700BF00E100E00138B0F1807F0BD29A
:101960004FF0E023054A5861F02182F8231000204F
:10197000072298611A6170470120704700ED00E06E
:1019800090F82520022A034609D00422C2630120D0
:10199000012283F82520002283F824207047026862
:1019A000806C116821F00E011160016821F48071D2
:1019B0000160116821F001011160D3E9100202F009
:1019C0001F0101228A404260D3E9132151605A6D00
:1019D00032B1116821F480711160D3E91621516090
:1019E0000020D5E708B590F82530022B09D0042354
:1019F000C3630022012380F8253080F82420184694
:101A000008BD03681A6822F00E021A601A6822F0F4
:101A100001021A60826C136823F480731360D0E9AA
:101A2000101303F01F02012393404B60D0E91332DF
:101A30005A60436D33B11A6822F480721A60D0E99B
:101A400016325A60012380F82530002380F82430B4
:101A5000836B03B198470020D2E700002DE9F74FD0
:101A6000DFF888915F4C00230A6832FA03F502D14F
:101A700003B0BDE8F08F012505FA03F818EA020269
:101A800000F0A4804E68032706F003054FEA430EDA
:101A900007FA0EFC6F1E012F6FEA0C0C34D8876812
:101AA00007EA0C0ACF6807FA0EF747EA0A078760C9
:101AB000476827EA0808C6F300179F4047EA080767
:101AC0004760C76807EA0C088F6807FA0EF747EA0D
:101AD0000807022DC76019D14FEAD30800EB880828
:101AE00003F0070AD8F820704FEA8A0A4FF00F0B6C
:101AF0000BFA0AFB27EA0B0B0F6907FA0AF747EA0A
:101B00000B07C8F8207001E0032DDAD1076805FA49
:101B10000EF507EA0C073D4316F4403F056055D02B
:101B2000D9F8605045F00105C9F86050D9F8605007
:101B300023F0030707F1804705F0010507F580371B
:101B4000019503F0030C019DBD684FEA8C0C4FF02A
:101B50000F0E0EFA0CFEB0F1904F25EA0E0E37D0A4
:101B6000214DA84236D005F58065A84234D005F550
:101B70008065A84232D005F58065A84230D005F5D1
:101B80008065A84214BF0625052505FA0CF545EA2F
:101B90000E05BD60A568D74316F4801F0CBF3D40FD
:101BA0001543A560E56816F4001F0CBF3D401543C2
:101BB000E560656816F4003F0CBF3D401543656065
:101BC0002568F60354BF3D401543256001334BE7BC
:101BD0000025DAE70125D8E70225D6E70325D4E773
:101BE0000425D2E700040140000400480010024030
:101BF0000369194214BF0120002070470AB18161B6
:101C00007047816270470000044A5169014208B57B
:101C100002D05061FFF7A0FA08BD00BF00040140E8
:101C2000284B1A6818BB02F4C062B2F5806FD3F873
:101C3000802022F48072C3F8802040D11A6822F4F8
:101C4000C06242F400721A601F4A126832214A438D
:101C50001E49B2FBF1F201325969490500D522B99A
:101C60005B6958052BD503207047013AF4E7B0F5BE
:101C7000007F1FD102F4C062B2F5806FD3F88020DC
:101C800042F48072C3F8802019D11A6822F4C0622D
:101C900042F400721A600C4A126832214A430B491E
:101CA000B2FBF1F2013259694905D9D5002AD7D0E2
:101CB000013AF8E722F4C06242F480621A60002020
:101CC000704700BF007000400000002040420F003D
:101CD000024A936843F48043936070470070004069
:101CE0002DE9F341044618B9012002B0BDE8F081A6
:101CF0000368D90714D423689A0758D423681907AE
:101D000000F1A18023685A0700F1C88023689A0671
:101D100000F12F81E369002B40F05C810020E4E7B3
:101D20009F4DAB68EA6803F00C030C2B0AD102F05C
:101D30000303032B08D12B689B03DCD56368002BBE
:101D4000D9D1D1E7082BF5E76368B3F5803F10D10F
:101D50002B6843F480332B60FFF792FD06462B6817
:101D60009F03C8D4FFF78CFD801B6428F7D903209C
:101D7000BBE7B3F5A02F04D12B6843F480232B607D
:101D8000E6E72A6822F480322A602A6822F4802258
:101D90002A60002BE0D1FFF773FD06462B689903FC
:101DA000A9D5FFF76DFD801B6428F7D9DFE77C4DCF
:101DB000AB68EA6803F00C030C2B17D102F00303A5
:101DC000022B15D12B685A0502D5E368002B8BD066
:101DD0006B68226923F0FE4343EA02636B60714B38
:101DE0001868FFF70BFD002888D07DE7042BE8E793
:101DF000E368BBB12B6843F480732B60FFF740FDB1
:101E000006462B685B0507D56B68226923F0FE4305
:101E100043EA02636B6071E7FFF732FD801B022823
:101E2000EFD9A4E72B6823F480732B60FFF728FD1C
:101E300006462B685F057FF561AFFFF721FD801B2C
:101E40000228F6D993E76369554D9BB1D5F89430D4
:101E500043F00103C5F89430FFF712FD0646D5F8AC
:101E600094309B073FF54EAFFFF70AFD801B022819
:101E7000F5D97CE7D5F8943023F00103C5F8943008
:101E8000FFF7FEFC0646D5F894309F077FF53AAF82
:101E9000FFF7F6FC801B0228F5D968E7404DAB6DD3
:101EA000D80027D4AB6D43F08053AB65AB6D03F026
:101EB00080530193019B01273B4E3368D9051BD505
:101EC000A368012B29D1D5F8903043F00103C5F860
:101ED0009030FFF7D5FC41F288380646D5F89030AF
:101EE0009B0740D5002F3FF411AFAB6D23F080531B
:101EF000AB650BE70027DFE7336843F4807333609B
:101F0000FFF7BEFC80463368DA05D9D4FFF7B8FC8A
:101F1000A0EB08000228F6D929E7052B06D1D5F851
:101F2000903043F00403C5F89030CCE7D5F890200A
:101F300022F00102C5F89020D5F8902022F004028A
:101F4000C5F89020002BC4D1FFF79AFC41F28838E5
:101F50000646D5F890309907C4D5FFF791FC801B51
:101F60004045F6D903E7FFF78BFC801B4045B5D908
:101F7000FDE6A3690A4DCBB1D5F8983043F00103D3
:101F8000C5F89830FFF77CFC0646D5F898309B07DB
:101F90003FF5C0AEFFF774FC801B0228F5D9E6E6DA
:101FA000001002400800002000700040D5F8983072
:101FB00023F00103C5F89830FFF762FC0646D5F818
:101FC00098309F077FF5A6AEFFF75AFC801B0228CA
:101FD000F5D9CCE6454DAA6802F00C020C2A51D086
:101FE000022B2B6823F080732B603AD1FFF748FC5B
:101FF00006462B6899012ED4EA683D4B1340226AAD
:102000001343A26A43EA0223E26A43EAC263626AB2
:10201000013A43EA0213226B5208013A43EA42535F
:10202000626B5208013A43EA4263EB602B6843F06B
:1020300080732B60EB6843F08073EB60FFF720FC4C
:1020400004462B689A013FF569AEFFF719FC001BA7
:102050000228F6D98BE6FFF713FC801B0228C8D9AB
:1020600085E6FFF70DFC04462B689B0104D4EA6863
:10207000204B1340EB6051E6FFF702FC001B0228E7
:10208000F2D974E6012B3FF42FAEEB68226A03F01D
:10209000030191427FF428AE616A03F0F002013936
:1020A000B2EB011F7FF420AEA16A03F4FE42B2EB53
:1020B000012F7FF419AEE16A03F07842B2EBC16FF1
:1020C0007FF412AE226B520803F4C001013AB1EB67
:1020D000425F7FF409AE626B5208013A03F0C063BD
:1020E000B3EB426F14BF01200020FEE50010024058
:1020F0000C809F01FCFFEEFE174B9A6802F00C0269
:10210000042A23D09A6802F00C02082A20D09A6888
:1021100002F00C020C2A1DD1D968DA68D868DB6895
:1021200001F00301C3F341630329C2F30312C0F3B7
:10213000062003F101030CBF084909495B00013285
:10214000B1FBF2F25043B0FBF3F070470448704724
:10215000024870470020704700100240001BB70083
:102160000024F4002DE9F8430E46054610B901207D
:10217000BDE8F8836D4A136803F00F038B4245D323
:10218000296811F001084CD12A68910740F1A78015
:10219000674B12F0040F1EBF996841F4E06199602B
:1021A000120741BF9A6822F47C5242F4E0629A60BE
:1021B0009A68A96822F0F0020A439A605B4C23688F
:1021C00003F00F03B34200F293802A68584C12F0D8
:1021D000040F40F0A380130706D5A3682A6923F4EF
:1021E000605343EAC203A360FFF786FFA368514A26
:1021F000C3F30313D35C03F01F03D8404E4B1860A6
:102200004E4B1868BDE8F843FFF7F8BA136823F09F
:102210000F030B431360136803F00F038B42A6D127
:10222000AEE76F68424C032F236849D19B019ED5CE
:10223000E368E26803F00303032BE3680CBF404844
:102240004048C2F30312C3F306230132B0FBF2F29B
:102250005343E268C2F3416201325200B3FBF2F32E
:10226000394A93421AD84FF00008A36823F00303B9
:102270003B43A360FFF704FB41F288390746A3689C
:102280006A6803F00C03B3EB820F3FF47DAFFFF7F6
:10229000F7FAC01B4845F2D9032069E7A36813F099
:1022A000F00F04D08807DED5AB68002BDBD1A36824
:1022B00023F0F00343F08003A3604FF08008D4E7DD
:1022C000022F09D113F4003F3FF451AFFFF714FF81
:1022D0001D4B9842C7D9EAE713F4806FF4E7B8F1D1
:1022E000800F01BF124A936823F0F003936065E703
:1022F000236823F00F0333432360FFF7C1FA41F251
:1023000088380746236803F00F03B3423FF45DAFFC
:10231000FFF7B6FAC01B4045F4D9BDE7A368E968EA
:1023200023F4E0630B43A36055E700BF00200240A5
:1023300000100240A08200080000002008000020D9
:10234000001BB7000024F40000B4C404054B064A87
:102350009B68C3F30223D35C044A106803F01F0395
:10236000D84070470010024098820008000000200A
:10237000054B064A9B68C3F3C223D35C044A10682A
:1023800003F01F03D84070470010024098820008F5
:10239000000000202DE9F3410446006810F40020FD
:1023A00056D0984DAB6DD80044D4AB6D43F08053FC
:1023B000AB65AB6D03F080530193019B0126924FF7
:1023C0003B6843F480733B60FFF75AFA80463B68F2
:1023D000D90531D5D5F89030226C13F440731FD055
:1023E0009A421DD0D5F89020D5F8903043F4803330
:1023F000C5F89030D5F8903022F4407123F4803342
:10240000D207C5F89030C5F8901009D5FFF738FA13
:1024100041F288380746D5F890309B0740F1EB80B1
:10242000D5F89030226C23F440731343C5F89030F4
:10243000002008E00026C2E7FFF722FAA0EB080020
:102440000228C4D903201EB1AB6D23F08053AB65C5
:102450002368DE0708D56B496568D1F8882022F02B
:1024600003022A43C1F888209D0708D56549A5685D
:10247000D1F8882022F00C022A43C1F8882059079D
:1024800008D56049E568D1F8882022F030022A4357
:10249000C1F888201A0708D55A492569D1F888203B
:1024A00022F0C0022A43C1F888209F0608D555496A
:1024B0006569D1F8882022F440622A43C1F8882057
:1024C0005E0608D54F49A569D1F8882022F440520C
:1024D0002A43C1F888201D0608D54A49E569D1F884
:1024E000882022F440422A43C1F88820D90508D523
:1024F0004449256AD1F8882022F440322A43C1F8A1
:1025000088209A0508D53F49656AD1F8882022F4C9
:1025100040222A43C1F888205F050FD53949A56AB2
:10252000D1F8882022F440122A43C1F88820B5F55A
:10253000801F02BFCA6842F48012CA601E050FD510
:102540003049E56AD1F8882022F440022A43C1F8D4
:102550008820B5F5800F02BFCA6842F48012CA60B5
:10256000DD040FD52749256BD1F8882022F0407271
:102570002A43C1F88820B5F1807F02BFCA6842F4BF
:102580008012CA6099040FD51E49656BD1F8882066
:1025900022F040622A43C1F88820B5F1006F02BFE3
:1025A000CA6842F48012CA605A040FD51549A56B57
:1025B000D1F8882022F040622A43C1F88820B5F182
:1025C000006F02BFCA6842F48012CA601B040FD5B4
:1025D0000C4AE16BD2F8883023F040530B43B1F141
:1025E000805FC2F8883003D1D36843F48033D3606E
:1025F00002B0BDE8F081FFF743F9C01B40457FF60C
:102600000AAF1FE7001002400070004090F83D3014
:10261000012B2BD1022380F83D300368DA6842F0A9
:102620000102DA60124A934212D0B3F1804F0FD008
:10263000A2F5943293420BD002F58062934207D008
:1026400002F59632934203D002F54062934207D1DD
:102650009968084A0A40062A06D0B2F5803F03D09E
:102660001A6842F001021A6000207047012070478A
:10267000002C0140070001000368DA6822F0010223
:10268000DA60196A41F21112114208D1196A44F252
:102690004442114202BF1A6822F001021A6001236B
:1026A00080F83D3000207047704770477047704792
:1026B000036870B5DD681E69B20704460ED5A90728
:1026C0000CD56FF002021A61012202779B699A070A
:1026D00000F0A480FFF7E9FF00232377730711D5EB
:1026E00068070FD523686FF004021A61022222776F
:1026F0009B6913F4407F204600F09680FFF7D5FFDA
:1027000000232377310710D52A070ED523686FF0F1
:1027100008021A6104222277DB699B07204600F039
:102720008980FFF7C2FF00232377F10610D5EA0660
:102730000ED523686FF010021A6108222277DB6938
:1027400013F4407F20467BD0FFF7AFFF00232377B1
:10275000F30708D5E80706D523686FF001021A6170
:102760002046FEF71BFF16F4025F08D0290606D5A7
:1027700023686FF402521A61204600F032F9F20524
:1027800008D52B0606D523686FF480721A6120469F
:1027900000F028F9700608D5690606D523686FF0A1
:1027A00040021A612046FFF782FFB20608D5AB0649
:1027B00006D523686FF020021A61204600F010F958
:1027C000F00208D5E90206D523686FF480121A6179
:1027D000204600F008F9B20208D5AB0206D52368FE
:1027E0006FF400121A61204600F0FEF8700208D55E
:1027F000690206D523686FF480021A61204600F052
:10280000F4F8320222D52B0220D523686FF400029F
:1028100020461A61BDE8704000F0E8B8FFF744FFB9
:102820002046FFF743FF57E7FFF73EFF2046FFF73D
:102830003DFF65E7FFF738FF2046FFF737FF72E7F8
:10284000FFF732FF2046FFF731FF7FE770BD000042
:10285000274A036890420ED0B0F1804F0BD0A2F50A
:102860009432904207D002F58062904203D002F584
:102870009632904208D14A6823F070031343CA6825
:1028800023F4407313430AE01A4A9042F7D002F54A
:1028900080629042F3D002F580629042EFD04A69A4
:1028A00023F08003134303608B68C3620B68836269
:1028B0000F4B98420FD003F5006398420BD003F5FD
:1028C0004063984207D003F58063984203D003F534
:1028D0008063984201D10B6903630123436103695B
:1028E000DB0742BF036923F001030361704700BFA8
:1028F000002C01400040014010B5044650B390F850
:102900003D3003F0FF021BB980F83C20FEF726FEA5
:102910000223206884F83D30211DFFF799FF012331
:1029200084F84830002084F83E3084F83F3084F842
:10293000403084F8413084F8423084F8433084F8E1
:10294000443084F8453084F8463084F8473084F8C1
:102950003D3010BD0120FCE730B590F83C30012B34
:1029600004464FF0020037D023681C4D84F83D0028
:10297000AB425A68986803D005F50065AB4203D1B5
:102980004D6822F470022A430D6822F0007222F092
:1029900070022A435A60114A934212D0B3F1804F19
:1029A0000FD0A2F5943293420BD002F5806293428D
:1029B00007D002F59632934203D002F5406293426B
:1029C00004D1896820F080020A439A600123002024
:1029D00084F83D3084F83C0030BD00BF002C01403D
:1029E00070477047704770477047704770470000E6
:1029F00010B5026852E8003F23F4907342E80031BA
:102A000002680029F5D10F4C02F1080353E8003F9A
:102A1000234002F1080C4CE800310029F4D1C36EC8
:102A2000012B07D152E8003F23F0100342E80031A8
:102A30000029F7D12023C0F88C300023C3664367F8
:102A400010BD00BFFEFFFFEF026852E8003F23F019
:102A5000800342E8003102680029F5D152E8003FC6
:102A600043F0400342E800310029F7D17047D0F825
:102A70008820212A034611D1B0F8562092B20AB913
:102A8000FFF7E2BF026D016812F8010B88621A6558
:102A9000B3F85620013A92B2A3F856207047D0F806
:102AA0008820212A034613D1B0F8562092B20AB9E1
:102AB000FFF7CABF1A6D006832F8021BC1F30801A4
:102AC00081621A65B3F85620013A92B2A3F85620F3
:102AD0007047D0F88830212B10B51BD1B0F86A2090
:102AE000C2B1B0F85610036889B2A1B903F1080267
:102AF00052E8002F22F4000203F1080040E8002110
:102B00000029F3D153E8002F42F0400243E80021AE
:102B10000029F7D110BDD96909060AD5016D11F850
:102B2000014B9C62B0F856300165013B9BB2A0F8A6
:102B30005630013A92B2D3E7D0F88830212B10B545
:102B40001BD1B0F86A20C2B1B0F85610036889B240
:102B5000A1B903F1080252E8002F22F4000203F1A8
:102B6000080040E800210029F3D153E8002F42F08B
:102B7000400243E800210029F7D110BDD9690906B8
:102B80000CD5016D31F8024BC4F308049C62B0F817
:102B900056300165013B9BB2A0F85630013A92B223
:102BA000D1E70000D0F88830202B10B544D100299F
:102BB00044D0002A42D0A0F85620A0F85420426EFB
:102BC00001650023C0F89030B2F1005F4FF021039F
:102BD000C0F888300268836819D1B3F5805F14D1DA
:102BE0000469174B1749002C18BF0B46836702F185
:102BF000080353E8003F43F4000302F1080040E8F3
:102C000000310029F3D1002010BD0E4BEEE7B3F5E3
:102C1000805F0FD104690C4B0C49002C18BF0B4688
:102C2000836752E8003F43F0800342E80031002907
:102C3000F7D1E8E7054BF3E70220E5E70120E3E7FA
:102C4000392B0008D32A00089F2A00086F2A0008A1
:102C50007047704708B5806A0023A0F85E30FFF720
:102C6000F8FF08BD704700000368D9691A682DE9AC
:102C7000F04140F60F0631429D68044610D18E06A1
:102C800040F1978002F0200605F080573E4300F0A7
:102C90009080436F002B00F08580BDE8F04118471D
:102CA000A84EA9482E401040304300F08280CF0744
:102CB00009D5D00507D501201862D4F8900040F05E
:102CC0000100C4F890008F0709D5E80707D5022056
:102CD0001862D4F8900040F00400C4F890004F0748
:102CE00009D5E80707D504201862D4F8900040F011
:102CF0000200C4F890000F070BD502F0200030430B
:102D000007D008201862D4F8900040F00800C4F8FA
:102D100090000E050AD5500108D54FF400601862E6
:102D2000D4F8903043F02003C4F89030D4F89030B9
:102D3000002B37D08B0609D502F0200205F0805514
:102D40002A4303D0636F0BB1204698472668D4F816
:102D50009020B36802F0280203F0400353EA020512
:102D6000204621D0FFF744FEB3685F0617D52268DE
:102D700002F1080353E8003F23F04003083242E821
:102D800000310029F3D1D4F8800040B16F4B836348
:102D9000FEF728FE30B1D4F88000836B7DE7204633
:102DA000FFF757FFBDE8F081FFF753FFC4F89050DD
:102DB000F8E7E06E012840F08D80CE0640F18A8071
:102DC000D00640F1878010221A629968B4F85C201E
:102DD000490651D5D4F880100868416889B20029A5
:102DE00042D0914240D2A4F85E10026892062FD4DD
:102DF00053E8002F22F4807243E800210029F7D124
:102E000003F1080252E8002F22F0010203F108004A
:102E100040E800210029F3D103F1080252E8002F15
:102E200022F0400203F1080040E800210029F3D11C
:102E30002022C4F88C20E16653E8002F22F0100213
:102E400043E800210029F7D1D4F88000FEF798FD6F
:102E500002232367B4F85E30B4F85C10C91A89B253
:102E60002046FFF7FFFE9DE791429BD103689B063A
:102E700098D502232367F3E7B4F85E10B4F85E0038
:102E800080B289B200288DD0521A91B2002989D01F
:102E900053E8002F22F4907243E800200028F7D175
:102EA0002B4D03F1080252E8002F2A4003F10806D7
:102EB00046E800200028F4D12022C4F88C20606766
:102EC000E06653E8002F22F0100243E800200028BB
:102ED000F7D1CEE7CF0209D56E0207D54FF48012A5
:102EE00020461A62BDE8F04100F006BE08060BD588
:102EF00002F0800005F40005284305D0A36F002BE5
:102F00003FF450AF2046C8E64F0611D556060FD500
:102F100053E8002F22F0400243E800210029F7D1B6
:102F20002023C4F88830A1672046FFF791FE39E7D7
:102F30000D020FD550000DD52046BDE8F04100F040
:102F4000DDBD00BF0100001020010004552C000869
:102F5000FEFFFFEFCB017FF525AF002ABFF622AFC2
:102F60002046BDE8F04100F0C8BD00BFD0F88C207D
:102F7000B0F86010222A08B5036855D15B6A826DEB
:102F80000B401370836D01338365B0F85E30013BF5
:102F90009BB2A0F85E30B0F85E309BB2002B42D1FD
:102FA000026852E8003F23F4907342E8003103685E
:102FB0000029F5D103F1080252E8002F22F00102A6
:102FC00003F1080C4CE800210029F3D12022C0F8BD
:102FD0008C20184A41679342016705D1C26E012ACD
:102FE0000ED0FEF783FB1EE05A681102F6D553E8B7
:102FF000002F22F0806243E800210029F7D1EDE79D
:103000000022C26653E8002F22F0100243E800219C
:103010000029F7D1DA69B0F85C10D20644BF10225B
:103020001A62FFF71FFE08BD9A6942F008029A6112
:10303000F9E700BF00800040D0F88C20B0F86010A5
:10304000222A08B5036852D15A6A1140826D22F8CB
:10305000021B8265B0F85E20013A92B2A0F85E20B1
:10306000B0F85E2092B2002A40D153E8002F22F43B
:10307000907243E800210029F7D103F1080252E8D9
:10308000002F22F0010203F1080C4CE80021002976
:10309000F3D12022C0F88C20174A41679342016780
:1030A00005D1C26E012A0ED0FEF720FB1EE05A6841
:1030B0001102F6D553E8002F22F0806243E8002188
:1030C0000029F7D1EDE70022C26653E8002F22F075
:1030D000100243E800210029F7D1DA69B0F85C104A
:1030E000D20644BF10221A62FFF7BCFD08BD9A69E0
:1030F00042F008029A61F9E70080004003682DE978
:10310000F047DD69D3F800809E68D0F88C20B0F8D5
:103110006070222A044640F0B580B0F86830002B79
:1031200000F08B804FF0000906F001064FF0040A12
:10313000AB0640F182802368A26D5B6A3B4013704E
:10314000A36D0133A365B4F85E30013B9BB2A4F8D4
:103150005E302368DD6968072AD0E9070AD518F4CC
:10316000807F07D001221A62D4F8902042F0010239
:10317000C4F89020AA0708D53EB102221A62D4F8FA
:10318000902042F00402C4F89020680708D53EB1B0
:10319000C3F820A0D4F8903043F00203C4F8903074
:1031A000D4F8903023B12046FFF753FDC4F8909037
:1031B000B4F85E309BB2002BBAD1226852E8003FCF
:1031C00023F4807342E8003123680029F5D13048A8
:1031D00003F1080252E8002F024003F1080545E818
:1031E00000210029F4D12022C4F88C20294A6167EB
:1031F000934221670AD05A68110207D553E8002F7D
:1032000022F0806243E800210029F7D1E26E012A12
:1032100034D10022E26653E8002F22F0100243E886
:1032200000210029F7D1DA69B4F85C10D20644BF56
:1032300010221A622046FFF715FDB4F85E309BB2EB
:10324000D3B1B4F868209A4216D9226802F1080373
:1032500053E8003F23F08053083242E800312268EF
:103260000029F2D10C4B636752E8003F43F0200382
:1032700042E800310029F7D1BDE8F0872046FEF78B
:1032800035FADAE79A6942F008029A61F4E700BF7A
:10329000FEFFFFEF008000406D2F000803682DE95E
:1032A000F047DD69D3F800809E68D0F88C20B0F834
:1032B0006070222A044640F0B280B0F86830002BDB
:1032C00000F088804FF0000906F001064FF0040A74
:1032D000AB067FD52368A26D596A394022F8021BDC
:1032E000A265B4F85E20013A92B2A4F85E20DD69CE
:1032F00068072AD0E9070AD518F4807F07D0012291
:103300001A62D4F8902042F00102C4F89020AA0773
:1033100008D53EB102221A62D4F8902042F004028D
:10332000C4F89020680708D53EB1C3F820A0D4F8AF
:10333000903043F00203C4F89030D4F8903023B1B9
:103340002046FFF786FCC4F89090B4F85E309BB23C
:10335000002BBDD1226852E8003F23F4807342E87D
:10336000003123680029F5D12F4803F1080252E803
:10337000002F024003F1080545E800210029F4D19F
:103380002022C4F88C20294A6167934221670AD021
:103390005A68110207D553E8002F22F0806243E8F3
:1033A00000210029F7D1E26E012A34D10022E26621
:1033B00053E8002F22F0100243E800210029F7D142
:1033C000DA69B4F85C10D20644BF10221A622046B3
:1033D000FFF748FCB4F85E309BB2D3B1B4F8682074
:1033E0009A4216D9226802F1080353E8003F23F0FD
:1033F0008053083242E8003122680029F2D10C4B98
:10340000636752E8003F43F0200342E8003100299F
:10341000F7D1BDE8F0872046FEF768F9DAE79A6948
:1034200042F008029A61F4E7FEFFFFEF00800040DF
:103430003930000838B50446C0692169A26823689C
:103440000A4361691D680A437C49024329400A43D3
:103450001A605A68E16822F440520A435A60784A76
:10346000A16993421CBF226A11439A6822F06E42FE
:1034700022F430620A439A60DA6A616A22F00F022B
:103480000A43DA626F4A934230D16F4BD3F88830E7
:1034900003F00303022B00F0CC80032B00F0B98073
:1034A000012B00F0BD80B0F5004F40F0BF80FEF76B
:1034B0005FFF002866D06168644B626A33F81220AF
:1034C000B0FBF2F24B0803EB42034FF6EF72B3FB93
:1034D000F1F3A3F1100191421FD823F00F022168EC
:1034E00092B2C3F342031343CB604BE0584A93427A
:1034F00015D1554BD3F8883003F00C03082B00F09E
:10350000988008D8002B40F08B80B0F5004F69D12F
:10351000FEF71CFFCDE70C2B7BD0012033E04D4A9A
:10352000934209D1484BD3F8883003F03003202B65
:103530007FD0E7D9302BEFE7474A934209D1424B7E
:10354000D3F8883003F0C003802B72D0DAD9C02BB7
:10355000E2E73B4A9342E0D13B4BD3F8883003F497
:103560004063B3F5006F15D003D843B9FEF7EEFE04
:1035700007E0B3F5406FD0D14FF400400BE0FEF709
:10358000BBFD40B900204FF00113A3660023C4E93E
:103590001D3338BD314865682C4B626A05EB450127
:1035A00033F81220B0FBF2F39942B6D8B3EB053FE3
:1035B000B3D800231946FDF78FFB090241EA1061D9
:1035C0006B080002C0182A464FF0000341F10001C9
:1035D000FDF782FB224BA0F540729A429DD82368EA
:1035E000D860CFE7FEF7B2FE0028CBD06368616AEF
:1035F000164A32F81120B0FBF2F000EB5300B0FB9A
:10360000F3F04FF6EF73A0F11002E6E7FEF774FD5A
:10361000EAE7B0F5004F3FF44EAF4FF40040E5E766
:10362000B0F5004FF2D1FEF767FD42E7FEF7A0FECE
:10363000DAE7B0F5004F0948D8D13CE7F369FFCF8E
:10364000008000400038014000100240B0820008B5
:103650000044004000480040004C00400024F400BA
:10366000FFFC0F00836A1A0710B506D50168846B4A
:103670004A6822F4004222434A60DC0706D501680A
:10368000C46A4A6822F4003222434A60990706D588
:103690000168046B4A6822F4803222434A605A0768
:1036A00006D50168446B4A6822F4802222434A60AE
:1036B000DC0606D50168C46B8A6822F48052224376
:1036C0008A60990606D50168046C8A6822F4005263
:1036D00022438A605A060FD50168446C4A6822F476
:1036E00080122243B4F5801F4A6005D14A68846C79
:1036F00022F4C00222434A601B0606D50268C16C50
:10370000536823F400230B43536010BD2DE9F843A5
:10371000DDF8209004460D46174698462268D36986
:1037200035EA03030CBF01230023BB4201D0002074
:1037300022E0B9F1FF3FF2D0FEF7A2F8A0EB0800BB
:10374000484529D8B9F1000F26D021680B685A07DF
:10375000E4D5802DE2D0402DE0D0CE6916F00806E9
:103760000CD0082520460D62FFF742F90023C4F86B
:10377000905084F884300120BDE8F883CB691B05A4
:10378000CCD54FF400630B622046FFF731F92023BC
:10379000C4F8903084F884600320EDE72DE9F74306
:1037A0009846D0F88830202B04460E46174646D15E
:1037B000002946D0002A44D021230025C0F890508B
:1037C000C0F88830FEF75CF8A368A4F85470B3F52D
:1037D000805F8146A4F8567003D123690BB9354642
:1037E0001E46B4F85620CDF8008092B24B4642B93E
:1037F00040212046FFF78AFF202348B9C4F88830CB
:1038000009E0002280212046FFF780FF30B120230D
:10381000C4F88830032003B0BDE8F08322685EB9A5
:1038200035F8023BC3F308039362B4F85620013A1B
:1038300092B2A4F85620D4E716F8013BF4E7022030
:10384000E9E70120E7E773B504460026C0F8906079
:10385000FEF716F823681B681A0705461CD56FF09B
:103860007E430093324603464FF400112046FFF793
:103870004DFF88B1226852E8003F23F0800342E800
:1038800000310029F6D12023C4F88830032000231A
:1038900084F8843002B070BD23681B685B0724D5B0
:1038A0006FF07E43009300222B464FF480012046A8
:1038B000FFF72CFFC8B1226852E8003F23F4907351
:1038C00042E8003122680029F5D102F1080353E8EB
:1038D000003F23F0010302F1080040E80031002915
:1038E000F3D12023C4F88C30D0E720230020C4F883
:1038F0008830C4F88C30E0662067C8E710B504460D
:1039000050B3D0F888301BB980F88430FDF7A4FE9E
:1039100022682423C4F88830136823F0010313605D
:10392000A36A13B12046FFF79DFE2046FFF782FDF4
:10393000012811D023685A6822F490425A609A688C
:1039400022F02A029A601A6842F0010220461A60A8
:10395000BDE81040FFF777BF012010BD30B581658D
:103960008168A0F85C200023B1F5805FA0F85E209C
:10397000436731D10369002B40F2FF1318BFFF23C7
:10398000A0F860300023C0F890302223C0F88C30BB
:10399000016801F1080353E8003F43F001030831D7
:1039A00041E800340368002CF2D1456E8468016957
:1039B000B5F1005F35D1B0F86850954231D8B4F513
:1039C000805F29D1C1B1264A426753E8002F42F4F3
:1039D000807243E8002121E029B90369002B0CBF64
:1039E000FF237F23CCE7B1F1805FC9D10369002BAE
:1039F0000CBF7F233F23C3E71A4A426703F1080243
:103A000052E8002F42F0805203F1080040E8002104
:103A10000029F3D1002030BD114A42670029D4D1DA
:103A2000ECE7B4F5805F16D151B10F4A426753E815
:103A3000002F42F4907243E800210029F7D1E9E712
:103A40000A4A426753E8002F42F0200243E800216F
:103A50000029F7D1DEE7044A42670029F2D0E6E701
:103A6000FD3000089D3200086D2F00083930000835
:103A7000D0F88C30202B30B415D1B9B1B2B10023BD
:103A80000468C3660A4B9C420AD063681B0207D5D0
:103A900054E8003F43F0806344E80035002DF7D13F
:103AA00030BCFFF75BBF022030BC70470120FBE752
:103AB00000800040436E30B52BB90123A0F86A3076
:103AC000A0F8683030BD0368094D9A689968094CC0
:103AD000490FC2F342626B5C615CDB00B3FBF1F344
:103AE000A0F86A30AB5CA25CDB00B3FBF2F3E7E763
:103AF000D0820008C882000870477047704790F86D
:103B00008430012B14D002682423C0F88830116857
:103B1000136823F00103136021F000510023436672
:103B200011602022C0F8882080F884301846704741
:103B30000220704770B590F88430012B044617D0EE
:103B400005682423C0F888302E682B6823F0010311
:103B50002B60AB6823F060431943A960FFF7AAFF0D
:103B600020232E60C0F88830002084F8840070BDC7
:103B70000220FCE770B590F88430012B044617D082
:103B800005682423C0F888302E682B6823F00103D1
:103B90002B60AB6823F060631943A960FFF78AFFCD
:103BA00020232E60C0F88830002084F8840070BD87
:103BB0000220FCE72DE9FF4757EC106B002F0C4665
:103BC00019463B46BBBF07F100431F4600232D2388
:103BD0000B700D9BDDF830A0914623F02008BCBF90
:103BE00032461646B8F1460F05D0B8F1450F00D160
:103BF0000134022100E0032103AB019302AB0093E7
:103C000047EC106B5346224601F06EF8B8F1470FAF
:103C1000054619D119F0010F0ED000EB040900225E
:103C2000002330463946FCF777FF08B1CDF80C90F9
:103C30003022039B4B451ED3039B0E9A5B1B2846E9
:103C4000136004B0BDE8F087B8F1460F00EB04093B
:103C5000E5D10378302B0AD10022002330463946C3
:103C6000FCF75AFF18B9C4F10104CAF80040DAF8A9
:103C700000309944D3E7591C03911A70D9E7F7B57E
:103C80000029BABF49422D232B2309290270437012
:103C900029DD0DF107031D460A271A46B1FBF7F689
:103CA00007FB1614303402F8014C0C46632C03F168
:103CB000FF333146F1DC3031941E03F8011C411C06
:103CC0002346AB420AD30DF109039B1AAC4288BFCD
:103CD000002302330344181A03B0F0BD13F8016B3C
:103CE00001F8016FEDE7302330318370C170031D9F
:103CF000F1E700002DE9F04F8DB00C46DDF858805B
:103D000016461F46054600F0E9FE03680493184670
:103D1000FCF7D6FA00230A93D8F800300590073351
:103D200023F0070303F1080294F818A0D4F800B0B8
:103D3000C8F80020D3E9008929F000430793CDF8A3
:103D40001880C4E91289DDE906019C4B4FF0FF326F
:103D5000FCF714FF70BBDDE90601984B4FF0FF3212
:103D6000FCF7EEFE30BB0022002340464946FCF73C
:103D7000DDFE10B12D2384F84330914A914BBAF106
:103D8000470F8CBF90469846032323612BF0040312
:103D900023604FF00009009733460BAA21462846BE
:103DA00000F0D2F9013040F08D804FF0FF300DB0BF
:103DB000BDE8F08F42464B4640464946FCF7DEFEE2
:103DC00040B14B46002BBCBF2D2384F843307E4AC4
:103DD0007E4BD4E763680AF0DF0206925A1C3BD19F
:103DE000062363604BF480620023226003930AABD6
:103DF000CDE901A309AB0093616849EC108B0DF18B
:103E000023032846FFF7D6FE069B0999472B8046D9
:103E100029D1C81C02DB6368994241DDAAF1020A7C
:103E20005FFA8AFA0139524604F150000991FFF70E
:103E300026FF0A9A1318012A8146236102DC2268B0
:103E4000D20701D5013323619DF82330002BA2D086
:103E50002D2384F843309EE7069A472AC2D1002BCF
:103E6000C0D10123BDE7BAF1650FDBD9BAF1660F06
:103E700018D1002963680BDD216113B92268D007CE
:103E800002D501330B442361A1654FF00009DBE744
:103E900013B92268D20701D50233F4E70123F2E710
:103EA0004FF0670A0A9B994205DB23682161D80716
:103EB000EAD54B1CE7E70029D4BFC1F10202012279
:103EC0001344E0E723685A0507D423694246314684
:103ED0002846B84701302BD167E7BAF1650F40F2A9
:103EE000DD80D4E9120100220023FCF715FE002832
:103EF00033D0374A012331462846B84701303FF4D2
:103F000054AFDDE90938434502DB2368D8070FD5F4
:103F1000DDE9042331462846B84701303FF445AF78
:103F20004FF0000908F1FF3804F11A0AC84509DC0E
:103F300023689B0700F10381E0680B9B9842B8BFA0
:103F4000184634E70123524631462846B847013027
:103F50003FF42BAF09F10109E8E7099B002B39DC9D
:103F60001B4A012331462846B84701303FF41DAFB4
:103F7000DDE9093959EA030302D12368D907D7D506
:103F8000DDE9042331462846B84701303FF40DAF40
:103F90004FF0000A04F11A0B099B5B42534501DC08
:103FA0004B4693E701235A4631462846B84701302D
:103FB0003FF4FBAE0AF1010AEEE700BFFFFFEF7F1F
:103FC000DC820008D8820008E4820008E082000851
:103FD000E8820008A36DDDF828A05345A8BF53462A
:103FE000002B994636DC4FF0000B29EAE97904F101
:103FF0001A02A36D0693A3EB09035B4531DC099B11
:104000009A453ADC2368DA0737D4099BAAEB0309FF
:10401000069BAAEB03039945A8BF9946B9F1000F87
:1040200033DC4FF0000829EAE97904F11A0B099B07
:10403000AAEB0303A3EB090343457FF779AF012301
:104040005A4631462846B84701303FF4AEAE08F133
:104050000108ECE7424631462846B8470130C2D154
:10406000A3E60123314628460692B84701303FF4C3
:104070009CAE069A0BF1010BBBE7DDE90423314648
:104080002846B8470130C0D18FE6069A4B464244D5
:1040900031462846B8470130C3D186E6DDF828A06E
:1040A000BAF1010F01DCDB0736D501234246314668
:1040B0002846B84701303FF478AEDDE904233146A5
:1040C0002846B84701303FF470AED4E9120100220F
:1040D00000230AF1FF3AFCF71FFDC0B9534608F16F
:1040E000010231462846B84701300CD15DE6012374
:1040F0005A4631462846B84701303FF456AE08F1DB
:104100000108D045F3DB4B4604F15002DFE64FF0E7
:10411000000804F11A0BF4E701234246E1E701230A
:104120004A4631462846B84701303FF43EAE08F1D2
:104130000108E3680B995B1A4345F0DCFCE64FF09D
:10414000000804F11909F4E72DE9F04716469846EE
:104150008A680B69DDF820909342B8BF134633603C
:1041600091F8432007460C460AB1013333602368B7
:10417000990642BF336802333360256815F006059F
:1041800006D104F1190AE36832689B1AAB4226DCB7
:1041900094F843302268003B18BF012392062BD4C9
:1041A00004F1430241463846C84701301ED0236817
:1041B000226903F00603042B02BFE5683368ED1A99
:1041C000A3680CBF25EAE57500259342C4BF9B1A7E
:1041D000ED1800261A34B5421AD1002008E0012358
:1041E000524641463846C847013003D14FF0FF30B0
:1041F000BDE8F0870135C6E7E1185A1C302081F888
:104200004300224494F8451082F843100233C7E774
:104210000123224641463846C8470130E6D00136E0
:10422000D9E700002DE9FF470F7E0C9E782F9146BD
:1042300080460C469A4601F1430207D8622F0AD8FD
:10424000002F00F0D180582F00F0B88004F1420612
:1042500084F842703AE0A7F16303152BF6D801A168
:1042600051F823F0BD420008D14200084D42000839
:104270004D4200084D4200084D420008D14200085E
:104280004D4200084D4200084D4200084D420008D2
:10429000CF430008FB420008894300084D42000854
:1042A0004D420008F14300084D420008FB4200085F
:1042B0004D4200084D4200089143000833681A1D22
:1042C0001B68326004F1420684F8423001239CE00E
:1042D00033682068191D3160060601D51D6803E0AA
:1042E0004506FBD5B3F90050002D03DA2D236D42AE
:1042F00084F8433058480A2311E0216833680806DF
:1043000053F8045B02D4490648BFADB26F2F524840
:10431000336014BF0A230823002184F84310666821
:10432000A660002E05DB21682E4321F004012160E8
:104330004BD01646B5FBF3F103FB1157C75D06F8EA
:10434000017D2F46BB420D46F4D9082B0BD12368C3
:10435000DF0708D5236961689942DEBF302306F87C
:10436000013C06F1FF36921B2261CDF800A04B46BE
:1043700003AA21464046FFF7E7FE01304AD14FF03D
:10438000FF3004B0BDE8F087236843F020032360CA
:104390003248782784F84570236831681F0651F841
:1043A000045B02D45F0648BFADB23160D90744BF99
:1043B00043F0200323601DB11023ADE72648E9E751
:1043C000236823F020032360F6E71646BDE7336831
:1043D00025686169181D30602E061B6801D51960BB
:1043E00002E06806FBD51980002323611646BCE76E
:1043F00033681A1D32601E68626800213046FBF780
:104400000FFF08B1801B606063682361002384F89C
:104410004330AAE72369324649464046D047013037
:10442000ADD023689B0713D4E068039B9842B8BFC4
:104430001846A6E70123324649464046D047013098
:104440009DD00135E36803995B1AAB42F2DCEBE7E0
:10445000002504F11906F5E7EA820008FB8200084E
:104460002DE9F04F87B0914603938B685A1EB2F541
:10447000AE7F81BF6FF4AE7503EB050B40F25D13A9
:104480008B600B680A464FF0000543F4F06342F876
:104490001C3BCDE9045580460C4698BF4FF0000BFD
:1044A00001921646AA462F460295A2685AB1D9F83B
:1044B00000301B784E2B63D8402B3BD8A3F12B0147
:1044C000C8B20E2839D91FB1236823F48073236042
:1044D0000AF1FF3ABAF1010F00F21481019B9E42EA
:1044E00000F20581012007B0BDE8F08FA3F1610261
:1044F0000D2AE8D801A151F822F000BF4546000876
:10450000C7440008C7440008C7440008A146000883
:104510007B460008C7440008C7440008534600080B
:10452000C7440008C7440008C7440008C74400083F
:104530000F460008A3F14102DAE70E29C3D801A013
:1045400050F821F0FF450008C7440008FF45000867
:104550008F460008C7440008A1450008E54500084B
:10456000E5450008E5450008E5450008E545000883
:10457000E5450008E5450008E5450008E545000873
:104580006E2B09D8602BB1D8542B7BD0592B9AD1E4
:10459000072D98D108252FE0742B73D0792BF6E7DF
:1045A0002168C8051ED521F0800121600137BBF1CB
:1045B000000F03D001320BF1FF3BA260A368013B67
:1045C000A360236901332361D9F80430013B002B38
:1045D000C9F8043040F38280D9F800300133C9F8BB
:1045E000003062E71AEB05017FF46DAF226822F418
:1045F000C07222600D468A4606F8013BDEE722685B
:1046000010067FF560AF22F080022260F4E7BAF175
:10461000000F0CD177B9226802F4E061B1F5E06FC8
:1046200008D122F4F06222604FF0010AE4E7BAF107
:10463000020F50D0012D02D0042D7FF444AF01357C
:10464000EDB2D9E7BAF1010F7FF43DAF4FF0020AA6
:10465000D2E775B9002F7FF437AF226802F4E0612A
:10466000B1F5E06F40F0038122F4F0622260012591
:10467000C2E7032DE3D0052DDFE7022D7FF423AF42
:104680000325B9E7062D7FF41EAF0725B4E722689E
:1046900091057FF518AF22F4207222600297ABE7F4
:1046A000226802F4A061B1F5806F05D050057FF556
:1046B0000AAF002F00F0DB80910558BF029922F469
:1046C000F06258BF791A42F4C07258BFCDE904169F
:1046D0002260002790E74FF0030A8DE7D4F880317D
:1046E00049464046984700283FF4DFAEEBE6D4F851
:1046F0007C3116F8011D4A46404698472369013B24
:104700002361EBE66B1E062B24D8022D36D8019BC5
:104710009E427FF6E7AED4F87C3116F8011D4A467A
:10472000404698472369013B2361F0E7D4F87C3188
:104730001BF8011D4A46404698472369013B236107
:104740000AF1FF3A5FFA8AFABAF1020FEED1033D9D
:10475000EDB2761B2368DA0530D55B0511D5019BD8
:104760009E427FF6BFAED4F87C3116F8011D4A4652
:10477000404698472369013B2361F0E7AA46B346C8
:10478000DEE716F8011C2369652903F1FF3306F102
:10479000FF3523610CD045290AD0D4F87C314A4634
:1047A00040469847236916F8021C013BB51E236159
:1047B000D4F87C314A46404698472E46226812F08B
:1047C000100201D000208EE63270236803F4C0632B
:1047D000B3F5806F25D1029B9F420AD0DA1B04F209
:1047E0006F139E4228BF04F5B7762249304600F089
:1047F00007F901990022404602F0F2FB039B216871
:104800001B6811F0020F57EC106B03F1040215D076
:1048100003990A601B68C3E90067E3680133E3603A
:10482000D0E7049B002BE4D005990A2301314046D0
:1048300002F056FC049B059EC21AD0E711F0040F4B
:1048400003990A60E6D11D6832463B463046394638
:10485000FCF794F928B1084800F0B8F985ED000A92
:10486000DBE730463946FCF7E7F92860D5E7002753
:104870002EE600BF0C8300084D840008002310B50D
:104880000446C0E90033C0E9043383608181436694
:10489000C2818361194608225C3000F016F90D4B85
:1048A00063620D4BA3620D4BE3620D4B23630D4B13
:1048B00024629C4206D003F16802944202D0D033B5
:1048C0009C4205D104F15800BDE8104000F07AB9CF
:1048D00010BD00BF454A0008674A00089F4A00080B
:1048E000C34A0008F0060020024A0349034800F0CA
:1048F00069B800BF0C0000209D7400081C00002057
:1049000041680C4B994210B5044601D002F0C6FD37
:10491000A168094B994202D0204602F0BFFDE16830
:10492000064B994204D02046BDE8104002F0B6BDC7
:1049300010BD00BFF006002058070020C00700206F
:1049400010B50B4B0B4C0C4A1A6020460022042178
:10495000FFF794FF04F1680001220921FFF78EFFA1
:1049600004F1D0000222BDE810401221FFF786BFFB
:1049700028080020F0060020E9480008014800F05F
:1049800022B900BF31080020014800F01DB900BF66
:104990003108002010B50446FFF7F0FF236A1BB171
:1049A000BDE81040FFF7F0BF044B2362044B1B68C7
:1049B000002BF5D1FFF7C4FFF2E700BF0149000863
:1049C000280800202DE9F8430746884614460026AB
:1049D000D4E90195B9F1010905D52468002CF7D176
:1049E0003046BDE8F883AB89012B07D9B5F90E3005
:1049F000013303D029463846C04706436835E9E706
:104A00000EB410B59DB01FAB029006906FF0004140
:104A10000A48079104910A4953F8042B0591002490
:104A200002A9006801931B9402F0B8FB029B1C7062
:104A30001DB0BDE8104003B0704700BF1800002053
:104A40000802FFFF10B50C46B1F90E1000F06CF82B
:104A50000028ABBF636DA3891B1823F48053ACBF40
:104A60006365A38110BD2DE9F0411F468B89DB05ED
:104A700005460C46164605D5B1F90E100223002254
:104A800000F040F8A389B4F90E1023F48053A381F9
:104A900032463B462846BDE8F04100F057B810B515
:104AA0000C46B1F90E1000F02DF8431CA38915BF78
:104AB000606523F4805343F48053A38118BFA3811E
:104AC00010BDB1F90E1000F00DB802440346934238
:104AD00000D1704703F8011BF9E700000048704758
:104AE0005801002038B5064D0023044608462B60C7
:104AF000FCF7D2FC431C02D12B6803B1236038BD04
:104B00002C08002038B5074D0446084611460022FF
:104B10002A601A46FCF7CAFC431C02D12B6803B179
:104B2000236038BD2C08002038B5074D04460846E0
:104B3000114600222A601A46FCF792FC431C02D15F
:104B40002B6803B1236038BD2C08002038B5074D11
:104B500004460846114600222A601A46FCF78EFCDD
:104B6000431C02D12B6803B1236038BD2C08002000
:104B7000014B1868704700BF1800002070B50D4D3C
:104B80000D4C641BA4100026A64209D10B4D0C4C01
:104B900003F074FB641BA4100026A64205D170BD6F
:104BA00055F8043B98470136EEE755F8043B984723
:104BB0000136F2E70C8700080C8700080C87000814
:104BC0001087000870477047704700009FED010A8A
:104BD000704700BF0000C07F2DE9F74F03690C69E3
:104BE000A34207467EDB013C01F11408A30000F15B
:104BF0001405009305EB8403019358F8243055F80D
:104C0000242001339A4208EB8409B2FBF3F62ED339
:104C10004FF0000AC446AE46D3465CF8043B98B257
:104C200006FB00A0020C1B0C06FB0323DEF8002091
:104C300080B292B2121A5A44DEF800004FEA134AC8
:104C40009BB2C3EB224303EB104392B242EA03420E
:104C5000E1454EF8042B4FEA234BDED2009BEB5884
:104C60002BB9019B043B9D421A462FD33C61384629
:104C700001F0C6F9002825DB2946002058F8042B4E
:104C8000D1F800C01FFA82FE1FFA8CF3A3EB0E03CB
:104C90000344120CC2EB234202EB1C429BB243EAD8
:104CA0000243C14541F8043B4FEA2240E6D255F8A1
:104CB000242005EB840322B9043B9D421A460BD302
:104CC0003C610136304603B0BDE8F08F1268043B0A
:104CD000002ACBD1013CC6E71268043B002AEFD181
:104CE000013CEAE70020EEE72DE9F04FC76997B0F5
:104CF0008DED040B55EC104B209E079181460C92D4
:104D000011937FB9102000F009FE0246C9F81C007B
:104D100020B9A94BEF21A94802F03AFCC0E901777C
:104D20000760C760D9F81C30196859B15A684A60E1
:104D3000012393408B60484600F0E6FED9F81C3012
:104D400000221A602B1EB9BF23F0004305930023F5
:104D50003360059F9A4BBCBF01223260BB4312D126
:104D6000119A42F20F731360C7F31303234300F049
:104D70005A85219BDFF85CA2002B00F05C850AF1CC
:104D8000030300F056BD9DED047B002251EC170B90
:104D900000238DED0A7BFBF7BFFE804658B1119AC8
:104DA00001231360219B13B1219A864B1360DFF816
:104DB00028A200F040BD9DED0A0B14AA15A9484693
:104DC00001F03EFAC7F30A560290002E78D00B9BF2
:104DD000CDF84880C3F31303DDE90A0143F07F53A4
:104DE00043F44013A6F2FF3619460022764BFBF738
:104DF00073FA6BA3D3E90023FBF726FC6AA3D3E97C
:104E00000023FBF76BFA044630460D46FBF7B2FB76
:104E100067A3D3E90023FBF717FC02460B462046A5
:104E20002946FBF75BFA04460D46FBF7BDFE002260
:104E30000746002320462946FBF778FE40B1384656
:104E4000FBF798FB22462B46FBF766FE00B9013FB5
:104E5000162F52D85D4B03EBC703D3E90023DDE9DE
:104E60000A01FBF763FE002849D0013F002310939D
:104E7000149B9B1B5A1E45BFC3F1010300930023E3
:104E80000023069254BF00930693002F39DB069B44
:104E90000D973B44069300230893079B092B63D887
:104EA000052BC4BF043B0793079BA3F10203CCBFB0
:104EB00000240124032B63D8DFE803F05254372B7E
:104EC000DDE914631E4406F23243202BC1BFC3F157
:104ED00040039F4006F2124324FA03F3D6BFC3F106
:104EE000200347EA030004FA03F0FBF733FB012237
:104EF000A1F1F873013E129276E70123B7E7109013
:104F0000B6E7009BDB1B00937B42089300230D93C5
:104F1000C3E7012309930C9B07EB030B0BF1010380
:104F2000012B0393B8BF012306E0012309930C9BD7
:104F3000002B28DD9B460393D9F81C000021042296
:104F400002F114059D4226D94160484600F09CFDBF
:104F50008246002842D11E4B024640F2AF11DAE6EB
:104F60000023E3E70023D5E70124002307930994F6
:104F70004FF0FF3B0022CDF80CB012230C92DBE780
:104F800001230993F4E74FF0010BCDF80CB05B4619
:104F9000CDF830B0D0E701315200D1E7AFF3008057
:104FA00061436F63A787D23FB3C8608B288AC63F2F
:104FB000FB799F501344D33F1E83000835830008BC
:104FC0000000F07FE98200080000F83FE884000854
:104FD0008D8300081A830008E8820008D9F81C3085
:104FE0001860039B0E2B00F2A180002C00F09E8025
:104FF000002F33DD9C4B07F00F0203EBC20393ED50
:10500000007BF8058DED0E7B4FEA271416D5974BE4
:10501000DDE90A01D3E90823FBF740FCCDE90401EF
:1050200004F00F040326914D54B9DDE90E23DDE9A8
:105030000401FBF733FCCDE9040128E00226F2E786
:10504000E10708D5DDE90E01D5E90023FBF7FCFAFD
:10505000CDE90E01013664100835E5E700F0AF80B8
:105060007C42814B814D04F00F0203EBC203D3E974
:105070000023DDE90A01FBF7E7FACDE90401241179
:1050800000230226002C40F08F80002BD3D1109BF0
:10509000DDE90445002B00F09480754B002220468A
:1050A0002946FBF743FD002800F08B80039B002B73
:1050B00000F08780BBF1000F34DD20466D4B0022ED
:1050C0002946FBF7C1FACDE9040107F1FF380136A3
:1050D0005C463046FBF74EFADDE90423FBF7B4FAF1
:1050E000654B0022FBF7FAF80546A1F15076002C3B
:1050F0006AD1DDE90401614B0022FBF7EDF80246BD
:105100000B46CDE904232A463346FBF72DFD002844
:1051100040F09882DDE904012A4606F10043FBF7DE
:1051200005FD38BBDDE90A34CDE90434159B002BBD
:10513000C0F257810E2F00F354814B4B03EBC70392
:1051400093ED007B0C9B002B8DED007B80F2E580C6
:10515000039B002B00F3E1800CD1484B002251EC63
:10516000170BFBF771FADDE90423FBF7F3FC0028CA
:1051700000F06682002425460C9B56466FEA030821
:1051800000272146484600F0BFFC002D00F0BD80FE
:105190002FB1AF4203D03946484600F0B5FC29464E
:1051A000484600F0B1FCB0E0E20705D5D5E90023A0
:1051B000FBF74AFA013601236410083562E702263C
:1051C00065E7039CB84684E7274B099903EBC403C2
:1051D00053E902235444002954D029490020FBF705
:1051E0005DFB33462A46FBF777F8CDE90E015646BC
:1051F000DDE90401FBF7D8FC0546FBF7BBF90246E5
:105200000B46DDE90401FBF767F8303502460B4633
:10521000CDE9042306F8015BDDE90E23FBF786FCEC
:10522000002872D1DDE9042311490020FBF754F86E
:10523000DDE90E23FBF77AFC002840F0B480A6429B
:105240003FF470AFDDE90E010A4B0022FBF7FCF9D9
:10525000084BCDE90E010022DDE90401FBF7F4F96A
:10526000CDE90401C4E700BFE8840008C084000859
:105270000000F03F0000244000001C4000001440EB
:105280000000E03F31462846FBF7DEF9CDE90E018C
:1052900013945646DDE90401FBF786FC0546FBF74F
:1052A00069F902460B46DDE90401FBF715F83035D4
:1052B00006F8015B02460B46A642CDE904234FF0F7
:1052C000000224D1AF4BDDE90E01FBF707F80246DF
:1052D0000B46DDE90401FBF747FC002863D1DDE95B
:1052E0000E23A8490020FAF7F7FF02460B46DDE936
:1052F0000401FBF71BFC00283FF414AF139E731E40
:10530000139316F8013C302BF8D047463BE09E4BF8
:10531000FBF79AF9CDE90401BCE7DDE904455646FF
:10532000DDE9002320462946FBF7B8FAFBF73CFCF1
:105330008046FBF71FF9DDE90023FBF785F90246FC
:105340000B462046294608F13004FAF7C5FF06F857
:10535000014B039DA6EB0A04A54202460B4633D13E
:10536000FAF7BCFFDDE9002304460D46FBF7FCFB22
:10537000C0B9DDE9002320462946FBF7CDFB10B17B
:1053800018F0010F0ED10299484600F0BDFB002332
:105390003370119B01371F60219B002B00F04B8263
:1053A0001E6048E2B84633461E4613F8012D392ADE
:1053B00006D19A45F8D1302208F101088AF8002078
:1053C0001A7801321A70A0E76F4B0022FBF73CF904
:1053D0000022002304460D46FBF79EFB00289FD0C9
:1053E000D1E7099A002A00F0EA80079A012A00F31F
:1053F000CD80129A002A00F0C18003F23343089C4A
:10540000009E009A1A440092069A01211A444846C6
:10541000069200F077FC054666B1069B002B09DD7D
:10542000B342009AA8BF3346D21A0092069AF61ADF
:10543000D31A0693089B0BB3099B002B00F0C68080
:10544000002C00F0C08029462246484600F012FD9C
:10545000029A01460546484600F06AFC02998046D9
:10546000484600F051FB089B1B1B089300F0B180DD
:10547000089A4146484600F0FDFC0290012148464A
:1054800000F040FC0D9B0446002B00F0D8811A462A
:105490000146484600F0EEFC079B012B044600F352
:1054A0009F80049B002B40F09780059BC3F3130360
:1054B000002B40F09380059B23F000431B0D1B0540
:1054C00033B1009B01330093069B01330693012304
:1054D00008930D9B002B00F0B881236904EB830334
:1054E000186900F0C3FBC0F12000069B184410F0BF
:1054F0001F0000F08280C0F12003042B73DD009BAD
:10550000C0F11C0003440093069B03440644069329
:10551000009B002B05DD02991A46484600F004FD69
:105520000290069B002B05DD21461A46484600F0F6
:10553000FBFC0446109B002B61D00298214600F032
:105540005FFD00285BDA002302990A22484600F03A
:10555000FDFA099B029007F1FF38002B00F07781DC
:10556000294600230A22484600F0F0FABBF1000F5A
:1055700005466FDC079B022B49DC6BE0149BC3F1F3
:1055800036033CE70000E03F00002440039B5C1E24
:10559000089BA34209DB1C1B039B002BBFF630AF0B
:1055A000009B039A9E1A00232BE7089B0D9A0894F0
:1055B000E31A1A44009E039B0D92002421E7089CE5
:1055C000009E099D28E7DDF8088051E7089A0299B6
:1055D00050E7CDF8088051E7002379E7049B77E78F
:1055E0000023089379E793D0009A1C331A44009261
:1055F000069A1A441E4406928AE70346F4E7039B80
:10560000002BB84620DC9B46079B022B1EDDBBF11E
:10561000000F7FF4B1AD21465B460522484600F0FD
:1056200095FA01460446029800F0EAFC00287FF74C
:10563000A3AD5646312306F8013B08F101089FE56A
:10564000039CB8462546F4E7DDF80CB0099B002B17
:1056500000F00181002E05DD29463246484600F063
:1056600063FC0546089B002B5CD06968484600F047
:105670000BFA064628B9824B024640F2EF21FFF7AB
:105680004ABB2A690232920005F10C010C3001F08C
:1056900069FF01223146484600F046FC0AF1010349
:1056A00000930AEB0B030893049B03F001032F46BE
:1056B00006930546009B0298214603F1FF3BFFF746
:1056C0008BFA03463033039039460298099300F071
:1056D00097FC2A4604902146484600F0ADFCC2687B
:1056E000099B064602BB0146029800F089FC099B13
:1056F0000246314648460C92099300F005FA079B92
:105700000C9A009E42EA0301069B1943099B0DD1A6
:10571000392B27D0049A002A01DD039B31338BF803
:1057200000302EE52846B9E70122E2E70499002976
:1057300004DB079801430698014320D1002AEEDDDF
:10574000029900930122484600F0EEFB21460290A8
:1057500000F056FC0028009B02DCE0D1DA07DED521
:10576000392BDAD139238BF8003033461E46013B02
:1057700016F8012C392A4ED001321A7001E5002AA0
:1057800003DD392BEED00133C9E7009A089902F8FE
:10579000013C8A4228D0029900230A22484600F0A0
:1057A000D5F9AF4202904FF000034FF00A0239469C
:1057B000484607D100F0CAF907460546009B013369
:1057C000009377E700F0C2F92946074600230A2232
:1057D000484600F0BBF90546F0E7BBF1000FCCBF2F
:1057E0005E4601265644002702990093012248464E
:1057F00000F09AFB2146029000F002FC0028B4DC85
:1058000002D1009BDB07B0D433461E4613F8012DAE
:10581000302AFAD0B5E49A45A8D1312308F101081D
:105820008AF80030ADE4219BDFF858A01BB10AF1E3
:105830000803219A1360504617B0BDE8F08F079B0C
:10584000012B7FF72EAE0D9B089301204DE6BBF197
:10585000000F7FF7D9AE564602982146FFF7BCF9F4
:1058600000F1300306F8013BA6EB0A029345B4DDD4
:10587000029900230A22484600F068F90290EBE7FB
:105880008D8300081183000838B50546002941D0F2
:1058900051F8043C0C1F002BB8BFE41800F0E8F8E6
:1058A0001D4A136833B9636014602846BDE8384068
:1058B00000F0E4B8A34208D9206821188B4201BF48
:1058C00019685B6809182160EDE71A465B680BB13F
:1058D000A342FAD911685018A0420BD120680144A4
:1058E000501883421160E0D118685B685360084427
:1058F0001060DAE702D90C232B60D6E72068211864
:105900008B4204BF19685B68636004BF091821609B
:105910005460CAE738BD00BF38080020024B01467A
:10592000186800F025B800BF1800002070B50F4EB1
:105930000C463168054611B901F004FE306021467D
:10594000284601F0FFFD431C03D14FF0FF342046F1
:1059500070BDC41C24F00304A042F8D0211A2846CC
:1059600001F0F0FD0130F2D1EFE700BF3408002074
:105970002DE9F843CD1C25F0030508350C2D38BF63
:105980000C25002D064601DBA94204D90C23336007
:105990000020BDE8F883DFF8D48000F069F8D8F87B
:1059A00000301C4644BB29463046FFF7BFFF431C6E
:1059B000044658D1D8F800402746002F43D1002C88
:1059C0004BD023683946304604EB030901F0BAFD99
:1059D000814542D121686D1A29463046FFF7A6FF5E
:1059E00001303AD023682B442360D8F800305A683D
:1059F00062BBC8F800700FE02268521B20D40B2A4B
:105A000017D96119A342256018BF5960636808BFA0
:105A1000C8F8001062514B60304600F02FF804F1D6
:105A20000B00231D20F00700C21A1CBF1B1AA35035
:105A3000AFE76268A3420CBFC8F800205A60EBE7EA
:105A400023466468AEE73C467F68B6E71A465B6863
:105A5000A342FBD100235360DEE70C2333603046C2
:105A600000F00CF894E70560D6E700BF3808002086
:105A70000148FFF7A8B800BF300800200148FFF731
:105A8000A3B800BF3008002070B5C66904460D46B3
:105A900076B91020FFF742FF0246E06120B9184BAB
:105AA00018486B2101F074FDC0E901660660C6600C
:105AB000E669F36883B1E369DB6853F82500B8B998
:105AC000012101FA05F6721D9200204601F07EFDCB
:105AD00060B1C0E901560EE021220421204601F008
